:1000000027C04BC04AC049C048C050C546C045C0C3
:1000100044C043C042C041C040C03FC03EC00000D9
:10002000000038000000000037000000000036002B
:10003000020202020202020202020102040810206D
:100040002004100801020000040000000000A609BE
:1000500011241FBECFE5D2E0DEBFCDBF21E0A8ED69
:10006000B0E001C01D92A23DB207E1F710E0A0E6AA
:10007000B0E0E4EEF8E102C005900D92A83DB107B2
:10008000D9F710E0C8E2D0E003C02197FE0124DADE
:10009000C732D107D1F754D523CCB2CFDF92EF923C
:1000A000FF920F931F93CF93DF93962F282F30E06B
:1000B000EE24E394822F203408F06CC08901B3E071
:1000C00015950795BA95E1F7422F4770DE2C01C0D0
:1000D000DD0C4A95EAF7E7E7F1E0DF0158E0F12CA3
:1000E00060E041E0792F742359F01996CD91DC91AD
:1000F0001A97C00FD11F7D817D2109F446C0642B62
:10010000440F515012965111EDCFFF2009F43FC01A
:100110006623E9F1C0E0248D2F3F29F0CF5F3496AC
:10012000CF30C9F7C0E00C2F10E0F801EE0FFF1F31
:10013000EE0FFF1FED56FE4F808320E0492F50E069
:1001400090FD07C055954795942F2F5F2830B1F744
:1001500020E0000F111F000F111F09581E4FF8015A
:10016000238FD1E0D80F8D2F99DFF801868F6F2D67
:100170008D2F94DFF801858F8C2FDF91CF911F9108
:100180000F91FF90EF90DF900895F42AB9CF2F5F81
:100190003F4F90CFE7E7F1E0C0E0848D8F3F29F03B
:1001A000CF5F3496CF30C9F7C0E0EC2FF0E0DF012D
:1001B000AA0FBB1FAA0FBB1FAD56BE4F80E88C9382
:1001C00080E0692F70E090FD07C075956795962FC8
:1001D0008F5F8830B1F780E0EE0FFF1FEE0FFF1F3B
:1001E000E958FE4F838F8FEF868FC5CF823089F01D
:1001F00018F4813051F00895833019F0843009F0FB
:1002000008958CB58F7D8CBD08958AB58F778ABD92
:1002100008958AB58F7DFBCFCF93DF93282F30E0F1
:10022000F901EC5BFF4F8491F901E65CFF4FD4913B
:10023000F901E05DFF4FC491CC2399F08111D6DF25
:10024000EC2FF0E0EE0FFF1FE65DFF4FA591B4919C
:10025000EC91ED2381E090E009F480E0DF91CF9113
:10026000089580E090E0FACFCF93DF9390E0FC0117
:10027000E65CFF4F2491805D9F4FFC0184918823B1
:10028000C9F090E0880F991FFC01EC5DFF4FA5912C
:10029000B491FC01E25EFF4FC591D49161110DC094
:1002A0009FB7F8948C91209582238C938881282382
:1002B00028839FBFDF91CF910895623051F49FB79B
:1002C000F8943C91822F809583238C93E8812E2B88
:1002D000EFCF8FB7F894EC912E2B2C938FBFEACFF2
:1002E000282FFC01842F9191892798E03CE886957E
:1002F00008F483279A95D9F79E2F921B961798F3A7
:100300000895FC01A381B481828130E020E09C91BA
:10031000982349F42F5F3F4F23353105C1F78FE014
:10032000808381E0089530E020E09C91982341F0A3
:100330002F5F3F4F2E3094E23907B9F788E0F0CFB6
:100340004CE050E060E070E09C91982329F441502B
:10035000510961097109C1F781E0452B462B472BF3
:1003600009F780E00895AF92BF92CF92DF92EF92AB
:10037000FF920F931F93CF93DF93EC01C42EF89459
:10038000EB81FC8192818A81809589238283EB8134
:10039000FC8191818A818095892381838B01E12C65
:1003A00088E0A82EB12CFF24F394D12CCE01A9DF34
:1003B0008111DF2888818823A1F091E0F91204C01F
:1003C000883011F48EE08883789481E0DF91CF91BA
:1003D0001F910F91FF90EF90DF90CF90BF90AF9063
:1003E0000895FF0CE1E0AE1AB10801F7F801D192CF
:1003F0008F01E394CE10D4CF789480E0E7CFFC0156
:10040000A381B481828130E020E09C91982349F45B
:100410002F5F3F4F23353105C1F78FE0808381E0A7
:10042000089530E020E09C91982369F02F5F3F4FC2
:100430002E3094E23907B9F788E0F0CF44E250E07B
:1004400060E070E00CC06111F9CF11969C9111979A
:10045000892B11968C9342E150E060E070E0A3811B
:10046000B48182819C91982329F4415051096109FA
:100470007109C1F711969C91119780958923119666
:100480008C9380E00895AF92BF92CF92DF92EF926B
:10049000FF920F931F93CF93DF93EC01E42EF89418
:1004A000EB81FC8192818A81809589238283EB8113
:1004B000FC8191818A81809589238183B62E8B016D
:1004C000F801A1908F0188E0C82ED12CFF24F3946D
:1004D00061E08A2D8F2109F460E0CE0190DF88234E
:1004E000A1F0F1E0FF1205C09881983011F49EE070
:1004F00098837894DF91CF911F910F91FF90EF90A7
:10050000DF90CF90BF90AF900895FF0C81E0C81AA4
:10051000D108F1F6902F9B199E1590F2789481E006
:10052000E912E8CF80E0E6CFE62FF0E025E0F59590
:10053000E7952A95E1F7E43060F4E80FF91FE257F8
:10054000FF4F8081809529F06F718295880F807EA2
:10055000682B862F08958F929F92AF92BF92CF9271
:10056000DF92EF92FF920F931F93CF93DF9300D010
:1005700000D000D0CDB7DEB77C018B011E8241E0F8
:10058000BE016C5F7F4FC801EEDE8111DFC04E817E
:1005900061E0CE010496A4DE8E8342E0BE016F5F6F
:1005A0007F4FC801E0DE8111D1C04E8162E0CE01F3
:1005B000019696DE8E838A818111C8C08C818A3A29
:1005C00009F411C108F08DC08F3009F04EC0470109
:1005D00025E9820E911C67013DE8C30ED11CAA24B7
:1005E000A394B12C9981F4018081981708F0AEC0D2
:1005F00041E0BE016B5F7F4FC801B5DE8111A6C02F
:100600004E8161E0CE0105966BDE8E8341E0BE0136
:100610006A5F7F4FC80137DF811198C06981C701C8
:1006200083DF682F70E09B0195E0359527959A95BB
:10063000E1F7243060F4F6014081F50102C0EE0FCD
:10064000FF1F2A95E2F79F01242309F0F0C01B82C7
:1006500041E0BE016D5F7F4FC80115DF811176C09B
:1006600089818F5F89838E83BDCF853509F0FBC07B
:100670008981883008F06AC041E0BE016B5F7F4F1E
:10068000C80171DE811162C04E8161E0CE01059624
:1006900027DE8E8341E0BE016A5F7F4FC801F3DE33
:1006A000811154C02981C701820F911D253038F472
:1006B000FC01E357FF4F2D81308123232083835793
:1006C0009F4FFC0180818D8341E0BE016B5F7F4FB6
:1006D000C801D9DE81113AC089818F5F89838E83F9
:1006E000C7CF833C09F445C0803F09F0BCC041E05E
:1006F000BE016A5F7F4FC801C6DE811127C01E821E
:100700009980570185E9A80EB11CF50180819816E2
:10071000B8F4692DC70108DFC82ED12CFDE0CF0E3B
:10072000D11CCE0CDF1C41E0B601C801ACDE81114A
:100730000DC04E8161E0C601D3DD8E839394E5CF79
:1007400041E0BE016A5F7F4FC8019DDE26960FB66D
:10075000F894DEBF0FBECDBFDF91CF911F910F91F7
:10076000FF90EF90DF90CF90BF90AF909F908F90D1
:10077000089541E0BE016A5F7F4FC80184DE8111A8
:10078000E5CF570125E9A20EB11C9980F5018081C2
:100790009816E0F61E82892D807E20E2822E880E39
:1007A0009814B8F4692DC701BFDEC82ED12CFDE026
:1007B000CF0ED11CCE0CDF1C41E0B601C80163DEB8
:1007C0008111C4CF4E8161E0C6018ADD8E8393948E
:1007D000E7CF41E0BE016A5F7F4FC80154DE81115F
:1007E000B5CF8982D2CF41E0BE016A5F7F4FC80199
:1007F0004ADE8111ABCF1E82D980ED0CF11C27E0BF
:100800002D1508F49DCF57013DE8A30EB11C41E022
:10081000B501C80138DE9FEFE91AF90A811196CFB8
:100820004E8161E0C5015CDD8E83D394E8CFF70192
:10083000E60FF71F95852D8192239587843068F404
:10084000CB010496950102C0220F331F8A95E2F76F
:10085000C90180958423F6018083635F7F4F6E0D0D
:100860007F1D41E0F9CE9BE0F801908381836ECF3C
:10087000CF93DF93EC0188819981009709F0CED660
:10088000198218821D821C821B821A82DF91CF91ED
:100890000895FC0180819181009709F0BFC60895F9
:1008A000FCD70F931F93CF93DF93EC01888199813D
:1008B000009759F02A813B812617370730F081E0F5
:1008C000DF91CF911F910F9108958B016F5F7F4F43
:1008D0002ED7009759F0998388831B830A832C8134
:1008E0003D81232B61F7FC011082E9CF80E0E8CF46
:1008F000EF92FF920F931F93CF93DF93EC01FB01D5
:10090000E080F180E114F10401F104811581011509
:10091000110599F08C819D81080F191FB801CE0136
:10092000C0DF882391F0288139818C819D81B701B6
:10093000820F931FBFD71D830C83CE01DF91CF9110
:100940001F910F91FF90EF900895CE0191DFF5CFA9
:10095000EF92FF920F931F93CF93DF9300D0CDB709
:10096000DEB78C0169831A82FC01E480F580FFEF19
:10097000EF1AFF0AB70195DF882379F0F80120818B
:10098000318184819581BE016F5F7F4F820F931FFC
:1009900091D7F801F582E48281E00F900F90DF910A
:1009A000CF911F910F91FF90EF900895EF92FF92DA
:1009B0000F931F93CF93DF93EC017B018A01BA0160
:1009C00070DF81110AC0CE0153DFCE01DF91CF91DC
:1009D0001F910F91FF90EF9008951D830C83B70135
:1009E0008881998167D7F1CFFC011182108213822F
:1009F000128215821482FB0101900020E9F73197E1
:100A0000AF01461B570BD2CFAF92BF92CF92DF926E
:100A1000EF92FF920F931F93CF93DF937C016B01B3
:100A20005A0189012417350720F48B2D5901042F11
:100A3000182F67E970E0C701D7DFD6011496CD9172
:100A4000DC91AC16BD0618F50C171D0708F4E8017B
:100A5000D601ED91FC911197EC0FFD1F10811082D2
:100A60006D917C916A0D7B1D61157105E1F0FB01B3
:100A700001900020E9F73197AF01461B570BC701E2
:100A800095DFF60180819181C80FD91F1883C701B6
:100A9000DF91CF911F910F91FF90EF90DF90CF905A
:100AA000BF90AF900895C701E3DEEBCF1F920F9286
:100AB0000FB60F9211242F933F938F939F93AF9371
:100AC000BF938091730190917401A0917501B091D1
:100AD00076013091720126E0230F2D3758F50296EA
:100AE000A11DB11D20937201809373019093740135
:100AF000A0937501B093760180916E0190916F0182
:100B0000A0917001B09171010196A11DB11D80935A
:100B10006E0190936F01A0937001B0937101BF912A
:100B2000AF919F918F913F912F910F900FBE0F909A
:100B30001F90189529E8230F0396A11DB11DD2CF50
:100B4000CF93DF93CDB7DEB7C056D1090FB6F89477
:100B5000DEBF0FBECDBF78948AB582608ABD8AB5EC
:100B600081608ABD83B7826083BF83B7816083BFA2
:100B700089B7826089BF80B7826080BF80B781609B
:100B800080BF329A319A3098379A8CB580648CBD88
:100B900062E770E0CE01855A9F4F26DF6BE770E079
:100BA000CE018B5A9F4F20DF6FE770E0CE01815B53
:100BB0009F4F1ADF68E970E0CE01875B9F4F14DF1B
:100BC00062EC70E0CE018D5B9F4F0EDF7E012DE366
:100BD000E20EF11C61EB70E0C70106DF1A82198298
:100BE000FE01339688E2DF011D928A95E9F761E004
:100BF00080E03ADB60E082E037DB62E081E034DB1A
:100C000062E084E031DB62E083E02EDB81E004DB44
:100C100014E0892B09F010E084E0FEDA22E0892B51
:100C200009F020E0120F83E0F7DA21E0892B09F0C8
:100C300020E0210FC22ED12C5601B2E0AB0EB11C28
:100C40008E01055D1F4F9501A601BE01675B7F4FB9
:100C5000C801DADE9501A601BE01615B7F4FCE01BE
:100C6000C196D2DE18AE1FAA1AAE19AE1CAE1BAECC
:100C70006D966EAD7FAD6D976115710539F0A196DA
:100C80004EAD5FADA197CE01C79690DEBE016F5C01
:100C90007F4FCE01C7962CDEBE016B5A7F4F28DEF8
:100CA000B80126DEBE016D5B7F4F22DE8E159F05EB
:100CB00051F0FC016081718161157105B9F04481C9
:100CC0005581C70173DECE01C796E3DDCE01C19623
:100CD000E0DDC801DEDD23964EAD5FAD23974832DF
:100CE000510538F460E2C70133DEF5CFC701C0DD3E
:100CF000EACF8DAD9EADFC01D12CC12C20E0009738
:100D000009F02081D22628E0B601CC0CDD1C77FF4B
:100D100004C035E0C32630E8D3262150A9F7319628
:100D20009F01281B390B2417350740F36C2DC70191
:100D30000FDE6D2DC7010CDE2396CEACDFAC239702
:100D4000C114D104A1F069E2C616D10418F039E249
:100D5000C32ED12C6DAD7EADA601CE010196B1D5CD
:100D6000E1E0F0E0EC0FFD1FEC0DFD1D1082FE0137
:100D70003196A5EEB0E081918D930E171F07D9F73C
:100D8000809165018F7C8093650180917F0188301F
:100D900008F49FC0C7017DDDCE018D5B9F4F79DDDB
:100DA000CE01875B9F4F75DDCE01815B9F4F71DD6B
:100DB000CE018B5A9F4F6DDDCE01855A9F4F69DD65
:100DC000B4E4EB2EB0E0FB2EAA24A394B12C90E95E
:100DD000C92E91E0D92E66246394F7018491EAE349
:100DE000F0E09490E0E3F0E08490882081F08111BD
:100DF000FDD9E82DF0E0EE0FFF1FE25EFF4FA59159
:100E0000B4918FB7F894EC919E2A9C928FBF109268
:100E100077017AE0772E80917F01882309F452C010
:100E2000E0917A01F0917B01918180917901809527
:100E30008923818390917701E0917A01F0917B0180
:100E4000809179019F3099F41092770141E950E047
:100E500060E070E09081982329F4415051096109C4
:100E60007109C1F7452B462B472B09F473C09081BC
:100E7000982341F144E05CE060E070E090819823C9
:100E800029F04150510961097109C1F7452B462BE1
:100E9000472BC1F04EE452E060E070E0908198236F
:100EA00029F44150510961097109C1F741155105F2
:100EB0006105710509F4C8C04734514061057105E9
:100EC00008F454C080E090E0892B09F486CF98D8CC
:100ED00082CFA0E8B1E09D017FEF90E0F901419160
:100EE00051919F01F0E0483D5F0709F453CF7930FD
:100EF00018F0452B09F4792F9F5F983079F77F3FE1
:100F000009F448CFE72FF0E0EE0FFF1FE958FE4F3E
:100F100028ED30E0328721878F5F80937F01E7E7FC
:100F2000F1E081E060E02D913D91232B09F0682BE9
:100F3000880F21E0A039B207B1F78FEF848F349684
:100F400031E0E33BF307D1F7662309F423CF80E0D8
:100F5000A5D820CF4EE452E060E070E09081982365
:100F600029F44150510961097109C1F74CE050E081
:100F700060E070E09081982329F0415051096109A7
:100F80007109C1F79281809589238283E0917A016A
:100F9000F0917B01818190917901892B8183E0918E
:100FA0007A01F0917B012091790130E082E690E0B6
:100FB000A0E0B0E00097A105B10581F04081422397
:100FC00051E009F450E0531304C00197A109B1099D
:100FD000A9F736250097A105B10561F78181209514
:100FE0002823218385EC90E0A0E0B0E0E0917A0135
:100FF000F0917B01309179012081232321F4019725
:10100000A109B109C9F7892B8A2B8B2B09F1809192
:101010007F018130F9F4E0E8F1E08191919100974E
:10102000E1F39093910180939001DC0112962C9151
:101030001297222379F0ED91FC910190F081E02D3F
:1010400067E771E00995E7CE84E0809377013ACFB6
:1010500086E0FBCF41E0B80187E791E084D9809139
:1010600077018F3009F4D7CE81112CCF8BA589362B
:10107000D9F008F047C0833309F435C180F48F30CC
:1010800009F431C1709277018093780180917701E2
:101090008F3009F4C0CE882309F4BDCE13CF8C3332
:1010A00009F4FCC0853571F71092910110929001FE
:1010B00048E0BE016F5F7F4F87E791E054D981110F
:1010C000E5CF80E8882E81E0982EF40181919191FE
:1010D0004F01009709F4DDC0DC0115969E012F5FDA
:1010E0003F4FAC01435F5F4F7D91F90161919F01DB
:1010F0007613CFC04A175B07B9F79093910180939D
:101100009001E7C08C3C09F4C9C058F4853A09F055
:10111000B9CF8091900190919101009709F0D9C0C9
:10112000D1CE8C3E09F4B2CF803F09F0ABCF109204
:10113000910110929001F894509092013090930197
:10114000912C812C412C38104FC060E087E791E052
:1011500056D981118AC060E087E791E050D98111AA
:1011600084C087E791E0CDD89091770191117DC03F
:10117000242D30E0220F331F220F331F29583E4FFA
:10118000882371F1F901468C842D90E0FC01EE0F6B
:10119000FF1FEE0FFF1FE958FE4F538CBFEF3324A4
:1011A0003A944B1641F0880F991F880F991FFC0144
:1011B000ED56FE4F3080EFEF8E1A9E0AF0E48F1648
:1011C000910409F0C0CFE52DF0E0EE0FFF1FE958C4
:1011D000FE4F81859285909391018093900145C047
:1011E000D9015D964C90D0CFE52DF0E0EE0FFF1FBA
:1011F000E958FE4F0184F285E02DC40133E0959556
:1012000087953A95E1F7E80FF91F882D87709501CA
:1012100001C0220F8A95EAF785818223C9F061E037
:1012200087E791E0ECD8811120C060E087E791E08A
:10123000E6D881111AC02224239487E791E061D86F
:1012400090917701911111C0821509F4B4CF0DC0AE
:1012500060E087E791E0D3D8811107C061E087E7BC
:1012600091E0CDD8282E882341F37894809177019E
:101270008111D1CD8091900190919101009709F455
:10128000CACDDC0113962C911397222309F4C3CD08
:10129000D2CEC814D90409F018CF14CE8091900191
:1012A00090919101892B71F480917F01813051F4EB
:1012B000E0E8F1E0819191910097E1F39093910141
:1012C000809390018091900190919101009709F491
:1012D000A2CDDC01ED91FC910190F081E02D67E75A
:1012E00071E00995D3CE8091900190919101892B65
:1012F00071F480917F01813051F4E0E8F1E0819157
:1013000091910097E1F39093910180939001609106
:101310009001709191016115710509F47CCD6B5FAD
:101320007F4F48E087E791E0AED880917701811147
:1013300072CD8091900190919101FC012481222332
:1013400009F469CD0190F081E02D77CE10927701FC
:1013500010927F01109291011092900110928101E0
:1013600010928001109283011092820110928501E7
:1013700010928401109287011092860110928901C7
:101380001092880110928B0110928A0110928D01A7
:1013900010928C0110928F0110928E01ECE3F0E01C
:1013A000E491E0937901E2E3F0E0E491F0E0EE0F04
:1013B000FF1FE65DFF4F8591949190937B01809391
:1013C0007A0160E082E050D7E0917A01F0917B01F0
:1013D0009281809179018095892382838AE690E0C9
:1013E0009093D9008093D8001092DA0081E0809326
:1013F000DB008093DC0089E08093DD001092DE004A
:101400001092DF0082E08093E00085E28093E100AB
:101410008DE08093E2001092E30040E067E08DED04
:1014200090E05ED78093E40080E790E09093D9004D
:101430008093D800E5EEF0E090E08FEF81939F5F1E
:101440009038E1F78093650180936601809367018E
:10145000809368018093690180936A0180936B0196
:1014600010926C0190936D0108952F923F924F92CC
:101470005F926F927F928F929F92AF92BF92CF9224
:10148000DF92EF92FF920F931F93CF93DF93CDB72D
:10149000DEB7CA1BDB0B0FB6F894DEBF0FBECDBFA5
:1014A00009942A88398848885F846E847D848C8476
:1014B0009B84AA84B984C884DF80EE80FD800C817F
:1014C0001B81AA81B981CE0FD11D0FB6F894DEBF62
:1014D0000FBECDBFED010895EE0FFF1F0590F491F3
:1014E000E02D09940F931F93CF93DF9382309105E2
:1014F00010F482E090E0E091D001F091D10130E071
:1015000020E0B0E0A0E0309799F42115310509F40E
:101510004AC0281B390B24303105D8F58A819B81BC
:101520006115710589F1FB0193838283FE0111C06E
:10153000408151810281138148175907E0F0481713
:10154000590799F4109761F012960C93129713961D
:101550001C933296CF01DF91CF911F910F91089587
:101560000093D0011093D101F4CF2115310551F032
:101570004217530738F0A901DB019A01BD01DF01D1
:10158000F801C1CFEF01F9CF9093D1018093D00141
:10159000CDCFFE01E20FF31F8193919322503109C9
:1015A00039832883D7CF2091CE013091CF01232BCF
:1015B00041F420916200309163003093CF01209379
:1015C000CE0120916000309161002115310541F478
:1015D0002DB73EB74091640050916500241B350B38
:1015E000E091CE01F091CF01E217F307A0F42E1B9A
:1015F0003F0B2817390778F0AC014E5F5F4F241777
:10160000350748F04E0F5F1F5093CF014093CE0136
:10161000819391939FCFF0E0E0E09CCFCF93DF9355
:101620000097E9F0FC01329713821282A091D00159
:10163000B091D101ED0130E020E01097A1F42081BC
:101640003181820F931F2091CE013091CF01281755
:10165000390709F061C0F093CF01E093CE01DF912B
:10166000CF910895EA01CE17DF07E8F54A815B8143
:101670009E0141155105B1F7E901FB83EA834991C8
:101680005991C40FD51FEC17FD0761F4808191813A
:101690000296840F951FE901998388838281938143
:1016A0009B838A83F0E0E0E012968D919C911397E2
:1016B0000097B9F52D913C911197CD010296820FBB
:1016C000931F2091CE013091CF012817390739F6A9
:1016D000309751F51092D1011092D001B093CF0103
:1016E000A093CE01BCCFD383C28340815181840FAC
:1016F000951FC817D90761F44E5F5F4F88819981A4
:10170000480F591F518340838A819B819383828331
:101710002115310509F0B0CFF093D101E093D0014C
:101720009ECFFD01DC01C0CF13821282D7CFB0E083
:10173000A0E0ECE9FBE09BCE8C01009741F4CB01EB
:10174000D1DE8C01C801CDB7DEB7E0E1ACCEFC0143
:10175000E60FF71F9C0122503109E217F30708F446
:1017600099C0D901CD91DC911197C617D70790F098
:10177000C530D10538F3CE0104978617970710F3CB
:10178000C61BD70B2297C193D1936D937C93CF0146
:1017900045DFD8CF5B01AC1ABD0A4C018C0E9D1EF3
:1017A000A091D001B091D101512C412CF12CE12C10
:1017B000109731F58091CE019091CF018815990550
:1017C00009F05CC04616570608F058C080916000CA
:1017D00090916100009741F48DB79EB740916400ED
:1017E00050916500841B950BE817F90708F052C06B
:1017F000F093CF01E093CE01F90171836083A2CF12
:101800008D919C91119712966C90129713967C90E3
:101810001397A815B90559F56C0142E0C40ED11C07
:10182000CA14DB0420F1AC014A195B09DA011296F3
:10183000159780F06282738251834083D9016D9342
:101840007C93E114F10471F0D7011396FC93EE93AD
:10185000129778CF22968C0F9D1FF9019183808378
:10186000F301EFCFF093D101E093D0016BCF481695
:10187000590608F42C017D01D3019ACFCB0132DE49
:101880007C01009739F0AE01B8010BD0C801C6DE6B
:10189000870158CF10E000E055CF81E090E0F89448
:1018A0001FC0FB01DC0102C001900D92415050406D
:1018B000D8F70895FB01DC0101900D920020E1F7BB
:1018C0000895FB01DC014150504048F001900D9219
:1018D0000020C9F701C01D9241505040E0F7089523
:0418E000F894FFCFAA
:1018E4000000D2018000000000005004000000004D
:1018F400AB0244454C4C3030414300313935003063
:1019040037353130303132353135303137353230A9
:1019140030323235323530003033383035313036CC
:101924003430373730393031303331313531323882
:101934000044454C4C30304143575757565656494E
:101944004949434E303132333435363738394142E0
:08195400434445413035000019
:00000001FF
