:1000000028C04CC04BC04AC049C047C547C046C0C5
:1000100045C044C043C042C041C040C03FC00000D2
:10002000000038000000000037000000000036002B
:10003000020202020202020202020102040810206D
:100040002004100801020000040000000000500914
:10005000FD0911241FBECFE5D2E0DEBFCDBF22E0F7
:10006000A8EDB0E001C01D92A032B207E1F710E0A8
:10007000A0E6B0E0ECEAF8E102C005900D92A83DE0
:10008000B107D9F710E0C8E2D0E003C02197FE0124
:10009000FDD9C732D107D1F74AD5FCCBB1CFDF921A
:1000A000EF92FF920F931F93CF93DF93962F282FFA
:1000B00030E0EE24E394822F203408F06CC08901F4
:1000C000B3E015950795BA95E1F7422F4770DE2CFE
:1000D00001C0DD0C4A95EAF7E5ECF1E0DF0158E0FC
:1000E000F12C60E041E0792F742359F01996CD91FD
:1000F000DC911A97C00FD11F7D817D2109F446C084
:10010000642B440F515012965111EDCFFF2009F48A
:100110003FC06623E9F1C0E0248D2F3F29F0CF5F77
:100120003496CF30C9F7C0E00C2F10E0F801EE0F85
:10013000FF1FEE0FFF1FEF51FE4F808320E0492F7E
:1001400050E090FD07C055954795942F2F5F2830BC
:10015000B1F720E0000F111F000F111F0B531E4FAE
:10016000F801238FD1E0D80F8D2F99DFF801868F0A
:100170006F2D8D2F94DFF801858F8C2FDF91CF911C
:100180001F910F91FF90EF90DF900895F42AB9CF5F
:100190002F5F3F4F90CFE5ECF1E0C0E0848D8F3FC3
:1001A00029F0CF5F3496CF30C9F7C0E0EC2FF0E0F4
:1001B000DF01AA0FBB1FAA0FBB1FAF51BE4F80E8C4
:1001C0008C9380E0692F70E090FD07C0759567956E
:1001D000962F8F5F8830B1F780E0EE0FFF1FEE0F94
:1001E000FF1FEB53FE4F838F8FEF868FC5CF82307B
:1001F00089F018F4813051F00895833019F084307B
:1002000009F008958CB58F7D8CBD08958AB58F77E0
:100210008ABD08958AB58F7DFBCFCF93DF93282FBA
:1002200030E0F901EC5BFF4F8491F901E65CFF4F90
:10023000D491F901E05DFF4FC491CC2399F0811175
:10024000D6DFEC2FF0E0EE0FFF1FE65DFF4FA5912C
:10025000B491EC91ED2381E090E009F480E0DF912E
:10026000CF91089580E090E0FACFCF93DF9390E0B4
:10027000FC01E65CFF4F2491805D9F4FFC0184915F
:100280008823D1F090E0880F991FFC01EC5DFF4FAF
:10029000A591B491FC01E25EFF4FC591D49161112B
:1002A0000EC09FB7F8948C91E22FE0958E238C932B
:1002B0002881E223E8839FBFDF91CF9108958FB714
:1002C000F894EC91E22BEC938FBFF6CF282FFC0132
:1002D000842F9191892798E03CE8869508F483273C
:1002E0009A95D9F79E2F921B961798F30895FC01C3
:1002F000A381B481828130E020E09C91982349F46D
:100300002F5F3F4F23353105C1F78FE0808381E0B8
:10031000089530E020E09C91982341F02F5F3F4FFB
:100320002E3094E23907B9F788E0F0CF4CE050E086
:1003300060E070E09C91982329F4415051096109D3
:100340007109C1F781E0452B462B472B09F780E067
:100350000895AF92BF92CF92DF92EF92FF920F93E8
:100360001F93CF93DF93EC01C42EF894EB81FC81B3
:1003700092818A81809589238283EB81FC8191819E
:100380008A818095892381838B01E12C88E0A82EC6
:10039000B12CFF24F394D12CCE01A9DF8111DF28E9
:1003A00088818823A1F091E0F91204C0883011F40B
:1003B0008EE08883789481E0DF91CF911F910F9137
:1003C000FF90EF90DF90CF90BF90AF900895FF0C1B
:1003D000E1E0AE1AB10801F7F801D1928F01E39480
:1003E000CE10D4CF789480E0E7CFFC01A381B48114
:1003F000828130E020E09C91982349F42F5F3F4FA9
:1004000023353105C1F78FE0808381E0089530E026
:1004100020E09C91982369F02F5F3F4F2E3094E2AB
:100420003907B9F788E0F0CF44E250E060E070E0CF
:100430000CC06111F9CF11969C911197892B1196DF
:100440008C9342E150E060E070E0A381B48182814E
:100450009C91982329F44150510961097109C1F710
:1004600011969C9111978095892311968C9380E029
:100470000895AF92BF92CF92DF92EF92FF920F93C7
:100480001F93CF93DF93EC01E42EF894EB81FC8172
:1004900092818A81809589238283EB81FC8191817D
:1004A0008A81809589238183B62E8B01F801A190E2
:1004B0008F0188E0C82ED12CFF24F39461E08A2DAF
:1004C0008F2109F460E0CE0190DF8823A1F0F1E0F4
:1004D000FF1205C09881983011F49EE098837894BB
:1004E000DF91CF911F910F91FF90EF90DF90CF9010
:1004F000BF90AF900895FF0C81E0C81AD108F1F6C3
:10050000902F9B199E1590F2789481E0E912E8CF24
:1005100080E0E6CFE62FF0E025E0F595E7952A9517
:10052000E1F7E43060F4E80FF91FE257FF4F8081F4
:10053000809529F06F718295880F807E682B862FB9
:1005400008958F929F92AF92BF92CF92DF92EF92D7
:10055000FF920F931F93CF93DF9300D000D000D072
:10056000CDB7DEB77C018B011E8241E0BE016C5F1E
:100570007F4FC801EEDE8111DFC04E8161E0CE0108
:100580000496A4DE8E8342E0BE016F5F7F4FC801F8
:10059000E0DE8111D1C04E8162E0CE01019696DE8F
:1005A0008E838A818111C8C08C818A3A09F411C175
:1005B00008F08DC08F3009F04EC0470125E9820E4A
:1005C000911C67013DE8C30ED11CAA24A394B12C51
:1005D0009981F4018081981708F0AEC041E0BE0116
:1005E0006B5F7F4FC801B5DE8111A6C04E8161E00F
:1005F000CE0105966BDE8E8341E0BE016A5F7F4FC0
:10060000C80137DF811198C06981C70183DF682F76
:1006100070E09B0195E0359527959A95E1F7243098
:1006200060F4F6014081F50102C0EE0FFF1F2A952C
:10063000E2F79F01242309F0F0C01B8241E0BE01D4
:100640006D5F7F4FC80115DF811176C089818F5F93
:1006500089838E83BDCF853509F0FBC089818830C1
:1006600008F06AC041E0BE016B5F7F4FC80171DED8
:10067000811162C04E8161E0CE01059627DE8E8336
:1006800041E0BE016A5F7F4FC801F3DE811154C0B3
:100690002981C701820F911D253038F4FC01E357F1
:1006A000FF4F2D8130812323208383579F4FFC01EF
:1006B00080818D8341E0BE016B5F7F4FC801D9DE31
:1006C00081113AC089818F5F89838E83C7CF833C34
:1006D00009F445C0803F09F0BCC041E0BE016A5F3B
:1006E0007F4FC801C6DE811127C01E829980570145
:1006F00085E9A80EB11CF50180819816B8F4692D22
:10070000C70108DFC82ED12CFDE0CF0ED11CCE0CC6
:10071000DF1C41E0B601C801ACDE81110DC04E8185
:1007200061E0C601D3DD8E839394E5CF41E0BE0145
:100730006A5F7F4FC8019DDE26960FB6F894DEBF34
:100740000FBECDBFDF91CF911F910F91FF90EF9022
:10075000DF90CF90BF90AF909F908F90089541E031
:10076000BE016A5F7F4FC80184DE8111E5CF57016A
:1007700025E9A20EB11C9980F50180819816E0F65A
:100780001E82892D807E20E2822E880E9814B8F475
:10079000692DC701BFDEC82ED12CFDE0CF0ED11CC4
:1007A000CE0CDF1C41E0B601C80163DE8111C4CF6D
:1007B0004E8161E0C6018ADD8E839394E7CF41E0EC
:1007C000BE016A5F7F4FC80154DE8111B5CF8982B7
:1007D000D2CF41E0BE016A5F7F4FC8014ADE81117E
:1007E000ABCF1E82D980ED0CF11C27E02D1508F44B
:1007F0009DCF57013DE8A30EB11C41E0B501C801F2
:1008000038DE9FEFE91AF90A811196CF4E8161E037
:10081000C5015CDD8E83D394E8CFF701E60FF71FA7
:1008200095852D8192239587843068F4CB010496B9
:10083000950102C0220F331F8A95E2F7C901809506
:100840008423F6018083635F7F4F6E0D7F1D41E03F
:10085000F9CE9BE0F801908381836ECFCF93DF9335
:10086000EC0188819981009709F0B2D6198218822B
:100870001D821C821B821A82DF91CF910895FC0198
:1008800080819181009709F0A3C60895E0D70F9366
:100890001F93CF93DF93EC0188819981009759F0E2
:1008A0002A813B812617370730F081E0DF91CF9115
:1008B0001F910F9108958B016F5F7F4F12D70097A3
:1008C00059F0998388831B830A832C813D81232BD4
:1008D00061F7FC011082E9CF80E0E8CFEF92FF9250
:1008E0000F931F93CF93DF93EC01FB01E080F18026
:1008F000E114F10401F1048115810115110599F04C
:100900008C819D81080F191FB801CE01C0DF88239B
:1009100091F0288139818C819D81B701820F931FCD
:10092000A3D71D830C83CE01DF91CF911F910F912F
:10093000FF90EF900895CE0191DFF5CF0F931F93B5
:10094000CF93DF9300D0CDB7DEB789831A820091B1
:10095000C3011091C4010F5F1F4FB8018FEB91E0ED
:1009600096DF882399F02091BF013091C0018091DA
:10097000C3019091C401BE016F5F7F4F820F931F2F
:1009800073D71093C4010093C30181E00F900F90BF
:10099000DF91CF911F910F910895EF92FF920F93E6
:1009A0001F93CF93DF93EC017B018A01BA016FDFC4
:1009B00081110AC0CE0152DFCE01DF91CF911F918C
:1009C0000F91FF90EF9008951D830C83B7018881EC
:1009D00099814AD7F1CFFC011182108213821282D1
:1009E00015821482FB0101900020E9F73197AF01D5
:1009F000461B570BD2CFAF92BF92CF92DF92EF92AE
:100A0000FF920F931F93CF93DF937C016B015A01E9
:100A100089012417350720F48B2D5901042F182F35
:100A200067E970E0C701D7DFD6011496CD91DC915C
:100A3000AC16BD0618F50C171D0708F4E801D60121
:100A4000ED91FC911197EC0FFD1F108110826D91BB
:100A50007C916A0D7B1D61157105E1F0FB01019030
:100A60000020E9F73197AF01461B570BC70195DF0F
:100A7000F60180819181C80FD91F1883C701DF91CA
:100A8000CF911F910F91FF90EF90DF90CF90BF908B
:100A9000AF900895C701E2DEEBCF1F920F920FB621
:100AA0000F9211242F933F938F939F93AF93BF93F4
:100AB0008091BB019091BC01A091BD01B091BE019C
:100AC0003091BA0126E0230F2D3758F50296A11D6B
:100AD000B11D2093BA018093BB019093BC01A093F8
:100AE000BD01B093BE018091B6019091B701A09174
:100AF000B801B091B9010196A11DB11D8093B60155
:100B00009093B701A093B801B093B901BF91AF9191
:100B10009F918F913F912F910F900FBE0F901F903B
:100B2000189529E8230F0396A11DB11DD2CFCF93AD
:100B3000DF93CDB7DEB764970FB6F894DEBF0FBE74
:100B4000CDBF78948AB582608ABD8AB581608ABD3E
:100B500083B7826083BF83B7816083BF89B78260B8
:100B600089BF80B7826080BF80B7816080BF329AC2
:100B7000319A3098379A8CB580648CBD60E081E002
:100B800074DB60E084E071DB60E083E06EDB61E0F9
:100B900080E06BDB60E082E068DB81E03EDB7C01D3
:100BA00084E03BDB8C0183E038DBEE0CFF1CE00EC5
:100BB000F11EEE0CE80E0E2D10E0780122E0E20EA0
:100BC000F11C9701A80160EB71E0CE01019613DFE3
:100BD0009701A8016AEA71E0CE0109960CDF188A34
:100BE0001F861A8A198A1C8A1B8A6091A401709137
:100BF000A5016115710539F04091A8015091A90135
:100C0000CE010F96CADEBE01675F7F4FCE010F9601
:100C100065DE6EE971E062DEBE016F5F7F4F5EDE12
:100C200068E971E05BDE31E08F3B930769F0DC013E
:100C30006D917C91119761157105C9F014964D91D4
:100C40005C918FEB91E0A9DECE010F9618DECE010C
:100C5000099615DECE01019612DE4091C301509136
:100C6000C4014832510538F480E268DEF6CF8FEBDC
:100C700091E0F4DDE9CF8091BF019091C001FC01CA
:100C800010E000E020E0009709F02081122728E022
:100C9000B801000F111F77FF03C0B5E00B271058F4
:100CA0002150B1F731969F01281B390B24173507C6
:100CB00048F3802F43DE812F41DE0091C301109164
:100CC000C4010115110509F099C010926E01EEE6FC
:100CD000F1E0A5EEB0E088E991E021912D938E1727
:100CE0009F07D9F7809165018F7C80936501809182
:100CF000CD01883008F494C00EED11E0EE24E394A9
:100D0000F12CE4E4F0E08491EAE3F0E0C490E0E365
:100D1000F0E0D490DD2081F0811169DAED2DF0E072
:100D2000EE0FFF1FE25EFF4FA591B4918FB7F894CD
:100D3000EC91CE2ACC928FBF1092C501CC24C394E3
:100D40008091CD01882309F452C0E091C801F0914F
:100D5000C90191818091C7018095892381839091F8
:100D6000C501E091C801F091C9018091C7019F3090
:100D700099F41092C50141E950E060E070E0908183
:100D8000982329F44150510961097109C1F7452B94
:100D9000462B472B09F485C09081982341F144E00C
:100DA0005CE060E070E09081982329F041505109A7
:100DB00061097109C1F7452B462B472BC1F04EE461
:100DC00052E060E070E09081982329F4415051098D
:100DD00061097109C1F7411551056105710509F4F2
:100DE000DAC0473451406105710508F466C080E0FF
:100DF00090E0892B09F485CF03D983CF09321105FF
:100E000010F009E210E06091BF017091C001A801EB
:100E10008EE691E030D5F801E259FE4F108257CFAF
:100E2000AEECB1E09D017FEF90E0F901419151916D
:100E30009F01F0E0483D5F0709F45ECF793018F07C
:100E4000452B09F4792F9F5F983079F77F3F09F49C
:100E500053CFE72FF0E0EE0FFF1FEB53FE4F28EDCF
:100E600030E0328721878F5F8093CD01E5ECF1E0A0
:100E700081E060E02D913D91232B09F0682B880FD4
:100E800021E0AE3DB207B1F78FEF848F349632E0A8
:100E9000E130F307D1F7662309F42ECF80E0FFD8C5
:100EA0002BCF4EE452E060E070E09081982329F46B
:100EB0004150510961097109C1F74CE050E060E00F
:100EC00070E09081982329F041505109610971091E
:100ED000C1F79281809589238283E091C801F091C6
:100EE000C90181819091C701892B8183E091C8015B
:100EF000F091C9012091C70130E082E690E0A0E0C6
:100F0000B0E00097A105B10581F04081422351E096
:100F100009F450E0531304C00197A109B109A9F7DE
:100F20003C250097A105B10561F781812095282313
:100F3000218385EC90E0A0E0B0E0E091C801F09161
:100F4000C9013091C7012081232321F40197A10910
:100F5000B109C9F7892B8A2B8B2B09F18091CD011F
:100F60008130F9F4EEECF1E0819191910097E1F399
:100F70009093DF018093DE01DC0112962C91129791
:100F8000222379F0ED91FC910190F081E02D65EC48
:100F900071E00995D5CE84E08093C50128CF86E025
:100FA000FBCF41E0BE01675F7F4F85EC91E0D1D977
:100FB0008091C5018F3009F4C3CE811118CF898586
:100FC0008936E1F008F048C0833309F436C188F46B
:100FD0008F3009F432C19AE09093C5018093C60125
:100FE0008091C5018F3009F4ABCE882309F4A8CED7
:100FF000FECE8C3309F4FCC0853569F71092DF0111
:101000001092DE0148E0BE016F5F7F4F85EC91E0FA
:10101000A0D98111E5CF8EECA82E81E0B82EF50184
:10102000819191915F01009709F4DDC0DC01159673
:101030009E012F5F3F4FAC01435F5F4F7D91F901F0
:1010400061919F017613CFC04A175B07B9F7909360
:10105000DF018093DE01E7C08C3C09F4C9C058F47D
:10106000853A09F0B8CF8091DE019091DF010097B9
:1010700009F0D9C0BCCE8C3E09F4B2CF803F09F054
:10108000AACF1092DF011092DE01F894D090E00117
:101090008090E101B12CA12C912C8A104FC060E00E
:1010A00085EC91E0A2D981118AC060E085EC91E0E5
:1010B0009CD9811184C085EC91E019D99091C5012A
:1010C00091117DC0292D30E0220F331F220F331FD5
:1010D0002B533E4F882371F1F901968C892D90E0B6
:1010E000FC01EE0FFF1FEE0FFF1FEB53FE4FD38CE3
:1010F000BFEF88248A949B1641F0880F991F880FB0
:10110000991FFC01EF51FE4F8080EFEFAE1ABE0A2F
:10111000F0E4AF16B10409F0C0CFED2DF0E0EE0F12
:10112000FF1FEB53FE4F818592859093DF018093E3
:10113000DE0145C0D9015D969C90D0CFED2DF0E049
:10114000EE0FFF1FEB53FE4F0184F285E02DC5012A
:1011500033E0959587953A95E1F7E80FF91F8A2DC9
:101160008770970101C0220F8A95EAF78581822353
:10117000C9F061E085EC91E038D9811120C060E0D0
:1011800085EC91E032D981111AC07724739485ECF3
:1011900091E0ADD89091C501911111C0871509F466
:1011A000B4CF0DC060E085EC91E01FD9811107C07C
:1011B00061E085EC91E019D9782E882341F3789489
:1011C0008091C5018111BCCD8091DE019091DF013C
:1011D000009709F4B5CDDC0113962C9113972223C7
:1011E00009F4AECDCFCE0A151B0509F018CFFFCDFF
:1011F0008091DE019091DF01892B71F48091CD0106
:10120000813051F4EEECF1E0819191910097E1F39E
:101210009093DF018093DE018091DE019091DF01E8
:10122000009709F48DCDDC01ED91FC910190F081E6
:10123000E02D65EC71E00995D3CE8091DE019091AF
:10124000DF01892B71F48091CD01813051F4EEECF6
:10125000F1E0819191910097E1F39093DF01809308
:10126000DE016091DE017091DF016115710509F405
:1012700067CD6B5F7F4F48E085EC91E0FAD88091B5
:10128000C50181115DCD8091DE019091DF01FC01EE
:101290002481222309F454CD0190F081E02D74CEF5
:1012A00062E770E084EA91E096DB6BE770E08EE93C
:1012B00091E091DB6FE770E08AEA91E08CDB68E90E
:1012C00070E080EB91E087DB62EC70E088E991E010
:1012D00082DB61EB70E08FEB91E07DDB1092C5016A
:1012E0001092CD011092DF011092DE011092CF0119
:1012F0001092CE011092D1011092D0011092D30120
:101300001092D2011092D5011092D4011092D701FF
:101310001092D6011092D9011092D8011092DB01DF
:101320001092DA011092DD011092DC01ECE3F0E0A2
:10133000E491E093C701E2E3F0E0E491F0E0EE0F26
:10134000FF1FE65DFF4F859194919093C9018093B3
:10135000C80160E082E089D7E091C801F091C9013D
:1013600092818091C7018095892382838AE690E0EB
:101370009093D9008093D8001092DA0081E0809396
:10138000DB008093DC0089E08093DD001092DE00BA
:101390001092DF0082E08093E00085E28093E1001C
:1013A0008DE08093E2001092E30040E067E08DED75
:1013B00090E08CD78093E40080E790E09093D90090
:1013C0008093D800E5EEF0E090E08FEF81939F5F8F
:1013D0009038E1F7809365018093660180936701FF
:1013E000809368018093690180936A0180936B0107
:1013F00010926C0190936D0108958FEB91E03FDAAC
:1014000088E991E03CDA80EB91E039DA8AEA91E010
:1014100036DA8EE991E033DA84EA91E030CA2F922D
:101420003F924F925F926F927F928F929F92AF9274
:10143000BF92CF92DF92EF92FF920F931F93CF93C1
:10144000DF93CDB7DEB7CA1BDB0B0FB6F894DEBF58
:101450000FBECDBF09942A88398848885F846E847E
:101460007D848C849B84AA84B984C884DF80EE80C8
:10147000FD800C811B81AA81B981CE0FD11D0FB6D1
:10148000F894DEBF0FBECDBFED010895EE0FFF1F34
:101490000590F491E02D09940F931F93CF93DF9360
:1014A0008230910510F482E090E0E0911E02F0910C
:1014B0001F0230E020E0B0E0A0E0309799F4211561
:1014C000310509F44AC0281B390B24303105D8F501
:1014D0008A819B816115710589F1FB019383828368
:1014E000FE0111C0408151810281138148175907C3
:1014F000E0F04817590799F4109761F012960C9391
:10150000129713961C933296CF01DF91CF911F91C2
:101510000F91089500931E0210931F02F4CF21151E
:10152000310551F04217530738F0A901DB019A0148
:10153000BD01DF01F801C1CFEF01F9CF90931F0288
:1015400080931E02CDCFFE01E20FF31F8193919392
:101550002250310939832883D7CF20911C02309142
:101560001D02232B41F420916200309163003093DF
:101570001D0220931C022091600030916100211512
:10158000310541F42DB73EB740916400509165009C
:10159000241B350BE0911C02F0911D02E217F307AA
:1015A000A0F42E1B3F0B2817390778F0AC014E5FD3
:1015B0005F4F2417350748F04E0F5F1F50931D02F1
:1015C00040931C02819391939FCFF0E0E0E09CCF89
:1015D000CF93DF930097E9F0FC01329713821282D8
:1015E000A0911E02B0911F02ED0130E020E01097A3
:1015F000A1F420813181820F931F20911C02309130
:101600001D022817390709F061C0F0931D02E0930D
:101610001C02DF91CF910895EA01CE17DF07E8F5AC
:101620004A815B819E0141155105B1F7E901FB83B8
:10163000EA8349915991C40FD51FEC17FD0761F456
:10164000808191810296840F951FE9019983888397
:10165000828193819B838A83F0E0E0E012968D91F2
:101660009C9113970097B9F52D913C911197CD015D
:101670000296820F931F20911C0230911D022817A1
:10168000390739F6309751F510921F0210921E0259
:10169000B0931D02A0931C02BCCFD383C2834081B0
:1016A0005181840F951FC817D90761F44E5F5F4FB2
:1016B00088819981480F591F518340838A819B817A
:1016C000938382832115310509F0B0CFF0931F0277
:1016D000E0931E029ECFFD01DC01C0CF1382128277
:1016E000D7CFB0E0A0E0E6E7FBE09BCE8C0100970F
:1016F00041F4CB01D1DE8C01C801CDB7DEB7E0E10A
:10170000ACCEFC01E60FF71F9C0122503109E21715
:10171000F30708F499C0D901CD91DC911197C61750
:10172000D70790F0C530D10538F3CE01049786175E
:10173000970710F3C61BD70B2297C193D1936D93D4
:101740007C93CF0145DFD8CF5B01AC1ABD0A4C01B9
:101750008C0E9D1EA0911E02B0911F02512C412C97
:10176000F12CE12C109731F580911C0290911D0213
:101770008815990509F05CC04616570608F058C050
:101780008091600090916100009741F48DB79EB701
:101790004091640050916500841B950BE817F90790
:1017A00008F052C0F0931D02E0931C02F90171830E
:1017B0006083A2CF8D919C91119712966C90129795
:1017C00013967C901397A815B90559F56C0142E062
:1017D000C40ED11CCA14DB0420F1AC014A195B0908
:1017E000DA011296159780F06282738251834083EA
:1017F000D9016D937C93E114F10471F0D701139634
:10180000FC93EE93129778CF22968C0F9D1FF901CF
:1018100091838083F301EFCFF0931F02E0931E02C8
:101820006BCF4816590608F42C017D01D3019ACFDD
:10183000CB0132DE7C01009739F0AE01B8010BD04C
:10184000C801C6DE870158CF10E000E055CF81E027
:1018500090E0F8941FC0FB01DC0102C001900D92E2
:1018600041505040D8F70895FB01DC0101900D92E2
:101870000020E1F70895FB01DC014150504048F0A1
:1018800001900D920020C9F701C01D9241505040B7
:10189000E0F7089510E0C8E2D0E003C0FE01F6DDF5
:0C18A0002196C932D107D1F7F894FFCF90
:1018AC000000200280000000000046040000000040
:1018BC00A10244454C4C30304143003139350031A4
:1018CC0030303135303230303235303330303335F2
:1018DC00303430303530300030353130373731300E
:1018EC0033313238313534313739323035323536AF
:1018FC000044454C4C303041435757575656564987
:10190C004949434E30313233343536373839414218
:08191C00434445413035000051
:00000001FF
